S01800006275696C642F6D6963617A2F6D61696E2E73726563E5
S11300000C945D000C94A2050C94AC050C94B605FC
S11300100C94C0050C94CA050C94D4050C94770870
S11300200C94DE050C947C000C947C000C94361526
S11300300C94F8160C946C050C9482050C94A70689
S11300400C945B050C94180F0C947C000C947C00AD
S11300500C947C000C9435060C947C000C947C006D
S11300600C9477050C947C000C947C000C947C001C
S11300700C947C000C947C000C947C000C947C000C
S11300800C947C000C94EA060C947C009E0FFB0FED
S11300900110541070107710AF1067118B119F115D
S11300A0C912FC125413A913F413F71307141F14E1
S11300B0960FE41400081C18141011241FBECFEF6F
S11300C0D0E1DEBFCDBF11E0A0E0B1E0E6E4F6E3AD
S11300D000E00BBF02C007900D92A031B107D9F721
S11300E012E0A0E1B1E001C01D92AC37B107E1F725
S11300F00E9486170C94221B0C9400008FB7F8946E
S1130100992708958FBF08958FB7F89499272BB333
S113011032E023272BBB8FBF08958FB7F89499271C
S11301202BB334E023272BBB8FBF0895282F9FB711
S1130130F894662349F0E82FFF27E256FE4F8081AA
S1130140882311F021E006C0E22FFF27E256FE4F7C
S1130150608320E0892F99278FBF822F99270895E4
S1130160E82F8FB7F894282F332790E0FF27E25623
S1130170FE4F8081861709F491E02FBF892F9927BC
S11301800895882311F06E9A08956E98089588232F
S113019011F06F9A08956F98089580E00E94C1004D
S11301A0BA9ABB98B99A6C9A80E00E94C700709A78
S11301B06B986A98689881E00E94C10008950F9333
S11301C01F93CF93DF93182F8FB7F894C82FDD2791
S11301D00C2F61E080E00E949600882321F0CFBFBD
S11301E085E090E024C0809105018823A1F48091EA
S11301F01501823081F409C082E0809315011092C8
S113020005010E94CD00B89AC0981093020180E0C5
S11302100FBF99270CC080911501882369F38FB70C
S1130220F894992710929E018FBF81E0F1CFDF915E
S1130230CF911F910F910895282F9FB7F894E82F1D
S1130240FF27E35CFD4F80818F3F81F4E0915402EE
S1130250E21771F40BC020933A0204C0FF27E35C59
S1130260FD4F20832093540220E007C025E005C001
S113027080913A028F3F91F7EECF892F99278FBF54
S1130280822F992708951F93182F81E00E94C1009F
S11302901FB9779BFECF8FB199271F9108958F9235
S11302A09F92AF92BF92CF92DF92EF92FF920F9301
S11302B01F93CF93DF938FB7F8949927C090A6012B
S11302C0D090A7018090490190904A01C0918A0181
S11302D0D0918B012091E1013091E2019AE0A92EA5
S11302E0B12CAC0EBD1E2A153B0508F459018FBF75
S11302F07401EC0EFD1E86010C0F1D1F14C0C114E9
S1130300D10419F0F801808101C080E00E9443010A
S11303108114910411F0F701808321960894E11C63
S1130320F11C0F5F1F4FC5010197C817D90738F398
S113033081E00E94C7009FB7F894C114D10431F042
S1130340CC0EDD1EF60180818FB901C01FB8D09399
S11303508B01C0938A01892F99278FBF80E090E099
S1130360DF91CF911F910F91FF90EF90DF90CF908D
S1130370BF90AF909F908F9008952FB7F894332734
S11303805093E2014093E1019093A7018093A60169
S113039070934A016093490110928B0110928A0173
S11303A02FBF452B29F08FB10E944F019927089543
S11303B087E00E941C0180E090E008958FB7F894D4
S11303C099271092A0018FBF0895982F969596951E
S11303D09695E8EDF1E0E90FF11D877021E030E03A
S11303E002C0220F331F8A95E2F780818223992766
S11303F00895982F969596959695E8E8F1E0E90F7B
S1130400F11D877021E030E002C0220F331F8A956E
S1130410E2F780818223992708958091E30188235C
S113042019F02FE170E002C078E025E0622FEFB709
S1130430F894809151028E7F8093510287B1982F56
S11304409F71829586958695837019F080E090E07F
S113045012C0822F8850863118F081E090E00BC0E2
S113046040E050E03327892F99272817390711F4E2
S113047041E050E0CA01982F9170990F8091510288
S11304808178262F2F71422F440F440F892B842B00
S113049080935102332727B9783059F58091B401FC
S11304A09091B50121E08638920718F087E090E03A
S11304B01FC0833C910518F086E090E019C0813696
S11304C0910518F085E090E013C08033910518F091
S11304D084E090E00DC08831910518F083E090E04D
S11304E007C00C9718F082E090E002C080E090E032
S11304F0782F7770887D872B886D992786B98E2F02
S113050099278FBF0895EF920F931F93AE2D99E013
S1130510899FF0011124E95DFE4F4083518362837A
S113052073830483158326833783A17080858E7F2C
S11305308A2B826080878BE00E941C011F910F919F
S1130540EF9008957FB7F89462B72091DD01309160
S1130550DE014091DF015091E00106B601FE0FC0BB
S113056081B792B7280F311D411D511D2F5F3F4F99
S11305704F4F5F4F290F311D411D511D04C0260FE0
S1130580311D411D511D872F99278FBFCA01B90104
S11305900895EF920F931F93A59AAD9A0E94A20219
S11305A0AB01BC0121E0E22E04E610E020E030E0E3
S11305B082E00E94830280E090E01F910F91EF900F
S11305C008958FB7F8949927209174002093E60139
S11305D08FBF0895DF92EF92FF920F931F938FB70F
S11305E0F894282F3327D22E91B782B746B798179D
S11305F011F041FF02C02FBF68C08091E50188233C
S1130600D1F10E94A202E090B601F090B7010091EE
S1130610B8011091B90120911B0230911C02409144
S11306201D0250911E026E197F09800B910B6217F7
S113063073078407950728F01092E50186EE71E0B0
S11306401CC02E0D3F1D401F511F8091DD01909154
S1130650DE01A091DF01B091E001281B390B4A0BA8
S11306605B0B273E31054105510528F4822F2230CA
S113067018F482E001C086EE70E0682F615000B685
S113068001FCFDCF82B7681709F46F5F2091DD018B
S11306903091DE014091DF015091E001DA01C9019E
S11306A00196A11DB11D860F911DA11DB11D8217BB
S11306B09307A407B50710F4622F609561BFDFBEEE
S11306C0772319F08AE00E941C011F910F91FF907B
S11306D0EF90DF900895AFB7F894BB27E1E0E09383
S11306E0E5016093B6017093B7018093B8019093CC
S11306F0B90120931B0230931C0240931D025093B6
S11307001E02AFBF0E94EA020895AF92BF92CF9239
S1130710DF92EF92FF920F931F93F82E5A016B0111
S11307200E94A202AB01BC01EE24960185018F2D2B
S11307300E9483021F910F91FF90EF90DF90CF9062
S1130740BF90AF900895EF92FF920F931F93CF93B2
S1130750DF93182F7B01042F8FB7F894C82FDD2760
S113076060E080E00E94B000882321F0CFBF80E0E9
S113077090E014C0CFBF1064812F99279093B301E8
S11307808093B2010E944301182F402F5527B701CF
S113079080E090E00E94BD01812F9927DF91CF91E5
S11307A01F910F91FF90EF90089580E880934B0183
S11307B0109289011092AF011092D901109259023E
S11307C00895CF93DF93FC0115A6DC019E96ED01FD
S11307D01B821A82198280E886A7DF91CF9108953F
S11307E02F923F924F925F926F927F928F929F923D
S11307F0AF92BF92CF92DF92EF92FF920F931F932B
S1130800CF93DF93CDB7DEB728970FB6F894DEBF4A
S11308100FBECDBF20909001309091014090920185
S1130820509093016624772488245EE4A52E43E83F
S1130830B42ECC24DD24EE24FF2400E010E0222D8D
S1130840332D442D552D662D772D882D90E00E9453
S1130850111929833A834B835C836D837E838F8351
S11308609887822E932EA42EB52E2401350100E202
S11308700E940F1AA22EB32EC42ED52EC301B2018C
S113088096958795779567956A0D7B1D8C1D9D1DA3
S113089097FF05C09F776F5F7F4F8F4F9F4F609388
S11308A09001709391018093920190939301289603
S11308B00FB6F894DEBF0FBECDBFDF91CF911F916D
S11308C00F91FF90EF90DF90CF90BF90AF909F90EB
S11308D08F907F906F905F904F903F902F900895EE
S11308E08FB7F89460918601709187012CB53DB55E
S11308F006B602FE04C06F5F7F4F2CB53DB5992745
S11309008FBF88279927CB01772766274427552748
S1130910622B732B842B952B0895EF92FF920F93E8
S11309201F930E9470047B018C01209195013091EA
S113093096014091970150919801809132029091D3
S11309403302A0913402B0913502820F931FA41F89
S1130950B51FE216F3060407150730F08217930754
S1130960A407B50758F005C082179307A407B50775
S1130970E0F5E816F9060A071B07B8F59C01AD0176
S11309802E193F09400B510B213060E8360760E017
S1130990460760E0560768F180E090E8A0E0B0E028
S11309A0E80EF91E0A1F1B1FE0929501F0929601B2
S11309B0009397011093980180E090E8AFEFBFEFA8
S11309C0E80EF91E0A1F1B1F2050304840405040BB
S11309D02093320230933302409334025093350211
S11309E020E030E840E050E014C020E030E040E097
S11309F050E08093950190939601A0939701B09352
S1130A009801109232021092330210923402109222
S1130A103502A901B7012CB53DB5C9018E199F094D
S1130A2003968417950720F0B9016D5F7F4F02C0CC
S1130A30640F751F6115710511F461E070E0615078
S1130A4070407BBD6ABD80E186BF87B7806187BF88
S1130A501F910F91FF90EF9008950F931F930FB77D
S1130A60F8941127609395017093960180939701F0
S1130A7090939801209332023093330240933402CE
S1130A80509335020E948D040FBF1F910F9108955A
S1130A9097B79F7D97BF90E296BF882319F08EB5D4
S1130AA0806402C08EB58F7B8EBD87B7806287BF9E
S1130AB080E090E008951F920F920FB60F921124D8
S1130AC08F9383B783BF00B600FCFDCF8F910F9047
S1130AD00FBE0F901F90189578941F920F920FB627
S1130AE00F9211240F900FBE0F901F9018957894B9
S1130AF01F920F920FB60F9211240F900FBE0F90FA
S1130B001F90189578941F920F920FB60F9211248C
S1130B102F933F938F939F932FB7F894332780910C
S1130B2086019091870101969093870180938601B5
S1130B302FBF9F918F913F912F910F900FBE0F90D8
S1130B401F9018951F920F920FB60F9211240F90B9
S1130B500FBE0F901F9018951F920F920FB60F9211
S1130B6011240F900FBE0F901F9018951F920F9293
S1130B700FB60F9211240F900FBE0F901F9018956F
S1130B801F920F920FB60F9211240F900FBE0F9069
S1130B901F9018951F920F920FB60F9211240F9069
S1130BA00FBE0F901F9018951F920F920FB60F92C1
S1130BB011240F900FBE0F901F9018951F920F9243
S1130BC00FB60F9211240F900FBE0F901F9018951F
S1130BD00E94E1028091E6018E7F80698093E601A4
S1130BE08093740080911A018330F1F580910B0198
S1130BF08823D1F58091090190E08F3F09F491E0B9
S1130C009923E1F48F3F19F42FEF30E00EC0282F21
S1130C103327F901E85BFE4F8081809309018F3F00
S1130C2011F480930A018FEF80832093AA0181E05D
S1130C3080931A018CE00E941C01089581E0809346
S1130C400B0110921A0180911B01813069F40E94FA
S1130C50E1028091E6018A778093E6018093740033
S1130C609098919810921B0108951F920F920FB6BD
S1130C700F9211242F933F934F935F936F937F931E
S1130C808F939F93AF93BF93EF93FF9344B155B169
S1130C9078948FB7F894992720915102322F369582
S1130CA0317021708FBF2223D9F433988091DA01F7
S1130CB0813021F0823009F039C00AC0332351F069
S1130CC0509351014093500181E10E941C012EC0B8
S1130CD0332319F40E940D0229C01092DA0126C0B0
S1130CE08FB7F89499278FBF2FB7F894332786B11D
S1130CF0582F5770482F4072987D942B952B8074F1
S1130D00977B982B90619F77892F992786B9887D47
S1130D10842B852B87738061992786B9887D842BE2
S1130D20852B877B8069992786B92FBFFF91EF9127
S1130D30BF91AF919F918F917F916F915F914F91EF
S1130D403F912F910F900FBE0F901F9018951F92F7
S1130D500F920FB60F9211242F933F934F935F93EB
S1130D606F937F938F939F93AF93BF93EF93FF936F
S1130D7083B783BF00B600FCFDCF81B799270196E6
S1130D80AA27BB272091DD013091DE014091DF01CC
S1130D905091E001280F391F4A1F5B1F2093DD018A
S1130DA03093DE014093DF015093E00178940E9478
S1130DB0EA02FF91EF91BF91AF919F918F917F9143
S1130DC06F915F914F913F912F910F900FBE0F90B4
S1130DD01F9018951F920F920FB60F9211242F9304
S1130DE03F934F935F936F937F938F939F93AF93AF
S1130DF0BF93EF93FF930E94E10280911B01843023
S1130E0009F085C080911C0190914F014091B1017E
S1130E10813009F042C09417F0F4E091A401F091FC
S1130E20A501E90FF11D80917300808340914F016A
S1130E30242F33278091B101992701972817390767
S1130E4041F580914E0182FD24C08091E6018F7BA3
S1130E508093E6011EC09091E601292F2E7F2093F6
S1130E60E60180914E0181FF09C08D7F80934E0180
S1130E7020612093E6018091710003C09E779093D6
S1130E80E6018091E6018093740081E080931B0168
S1130E909CC04F5F40934F0194C02091E60194178A
S1130EA078F4E091A401F091A501E90FF11D80818E
S1130EB0809373009F5F90934F012093740085C0CB
S1130EC0922F9E7F9093E60180914E0181FF07C08F
S1130ED08D7F80934E0190619093E60103C02E773D
S1130EE02093E6018091E6018093740081E0809371
S1130EF01B012091A4013091A501609155027091CC
S1130F00560280910C01882309F05FC03FC08530F0
S1130F1009F046C080914E018E7F80934E019091DE
S1130F20E6019F7D9093E60180917100887F88306F
S1130F3081F180917100887F803159F10E94E10232
S1130F408091E6018A7F8093E601809374000E9479
S1130F50E1028091E60184608093E601809374004D
S1130F6081E080931B0180911C01882371F52091FD
S1130F70A4013091A5014091B10160915502709195
S1130F80560280910C01882301F581E00E94E80556
S1130F901CC083E080931B0190649093E60102C01F
S1130FA0833099F480911C0190915502813019F499
S1130FB0990F916001C0990F9093730084E080931E
S1130FC01B018091E60180937400FF91EF91BF9122
S1130FD0AF919F918F917F916F915F914F913F91CD
S1130FE02F910F900FBE0F901F901895C09860918D
S1130FF024017091250141E08FE30E94A303089529
S11310000F931F93182F0FB7F89461E080E00E94AC
S11310109600882371F510930201809105018823BD
S1131020A9F580911501823089F586E00CC00E94F3
S1131030CD0080911501882349F481E08093150146
S11310401092DB0188E00E941C012AC080915B029F
S11310508F3F31F5E0910401EE2311F11CC0109291
S1131060030104C0FF27E55AFD4F108210920401CA
S113107017C081E090E002C0880F991F1A95E2F72B
S113108020911401282B209314010AC0809115018A
S11310908823E1F6CCCF809103018F3F19F7DFCF8E
S11310A0802F99278FBF80E090E01F910F910895C2
S11310B082E090E090938F0180938E0181E0809391
S11310C0890120E030E080910201843011F421E0B4
S11310D030E0232B29F484E00E94DF00882319F4F4
S11310E00E94F607089584E00E94000808951F9264
S11310F00F920FB60F9211242F933F934F935F9348
S11311006F937F938F939F93AF93BF93EF93FF93CB
S113111080918E0190918F01019719F40E945808D3
S113112005C0809159028F5F80935902FF91EF911E
S1131130BF91AF919F918F917F916F915F914F91EB
S11311403F912F910F900FBE0F901F9018951F93F2
S113115083E00E94DF009927182F882319F083E089
S11311600E940008812F99271F9108951F93809151
S11311701401882309F046C0109102011F3F09F0B1
S113118041C060E00E94B0008823E1F181E08093D7
S11311904401809123018823C1F11092440185E028
S11311A090E041C0923049F5C09A8091030190E0EB
S11311B08F3F09F491E09923D9F48F3F19F42FEF6D
S11311C030E00DC0282F3327F901E55AFD4F808107
S11311D0809303018F3F11F48093040110832093C3
S11311E0DB0181E08093150188E00E941C0105C0A9
S11311F0109305011092150111C0809115018823E7
S113120069F00FC081E090E00EC0809105019091DB
S11312101501882339F2923021F0EFCF80E00E944B
S1131220C10080E090E01F9108951F93182F81E082
S113123090E09093170180931601109223010E946D
S1131240B6088FB7F8949927109310018FBF82E0E6
S11312500E941C011F9108951F93CF93DF939FB7A2
S1131260F894C92FDD271C2F90910201981721F0C3
S1131270CFBF81E090E03AC08FEF809302013091BC
S113128014013323F1F48FB7F894992710929E0137
S11312908FBF0E94B608CFBF11C02093020181E026
S11312A090E002C0880F991F4A95E2F78095382391
S11312B03093140186E00E941C011FBF80E090E07F
S11312C015C080E065E0E32FFF270E94991A292FBB
S11312D0492F5527CF01042E02C0959587950A946E
S11312E0E2F780FDDACF822F8F5FEFCFDF91CF91CE
S11312F01F9108951F93CF93DF938FB7F894C82F4E
S1131300DD271C2F80918E0190918F01892B29F468
S113131084E00E942C09CFBF1EC0109289018091E5
S11313205902882311F0B79904C00E9908C0882384
S113133019F08150809359020E9458080BC081E033
S113134090E090938F0180938E011092590284E073
S11313500E942C091FBFDF91CF911F910895FF9226
S11313600F931F93CF93DF93F82E8B018FB7F894CD
S1131370C82FDD2760E080E00E94B000882321F0C0
S1131380CFBF80E090E00CC0CFBF8F2D0E944301FF
S1131390812F99270E944301802F0E94430199279E
S11313A0DF91CF911F910F91FF9008951F931FB765
S11313B0F89480918D01882319F460E070E009C0ED
S11313C060E080913602882309F461E081E06827B7
S11313D0772780919401882319F480E090E00AC073
S11313E090E080919D01882309F491E081E09827A1
S11313F0892F9927762F6627770F770F770FA4E029
S1131400880F991FAA95E1F7826E9262682B792B57
S113141081E10E94AF09812F99278FBF1F91089501
S11314208FB7F8949927609131028FBF85E0689F48
S1131430B0011124625D7E4F706488E10E94AF099F
S11314400895EF92FF921F93CF93DF93E0909B0157
S1131450F0909C01F70182A59927182F882309F49D
S11314601FE1C09880913802811749F0612F7727D6
S11314706F717070606E706885E10E94AF0910939F
S11314803802F70110818FB7F894C82FDD2760E088
S113149080E00E94B000882311F0CFBF12C0CFBFFC
S11314A08EE390E09093B3018093B2018EE30E94A7
S11314B043011150412F552760E070E0C7010E949D
S11314C0BD01DF91CF911F91FF90EF900895FF929E
S11314D00F931F93CF93DF93EA01F22E8B876E83D2
S11314E0672F77276F832FB7F89433278091AD0147
S11314F09091AE012FBF8C83892F99278D832FB7AD
S1131500F894332780910601909107012FBF8887B3
S1131510892F9927898761E082E00E9496008823B9
S113152019F085E090E06CC0809126018F5F809374
S1131530260181508B838FE38A878FB7F894082F15
S1131540112762E081E00E94B000882329F40FBFD4
S11315500E94DE0181E053C08FB7F894992724E0FC
S113156020939F018FBFD0935302C09352020FBFA9
S11315708DE0F80EFE01F1928981992780729070B6
S11315808983118289819927816498688983892F45
S1131590992781831CA618A619A61DA619AA18AAFC
S11315A01FA680E88EA761E0609337024091520243
S11315B0509153028FB7F894282F33278091160146
S11315C0909117018830910511F0019711F02FBF08
S11315D015C082E090E09093170180931601609308
S11315E0A20150939C0140939B011092B0012FBF24
S11315F00E94A708882311F40E94210A80E09927F9
S1131600DF91CF911F910F91FF900895AF92BF92F8
S1131610CF92DF92EF92FF920F931F93CF93DF93BA
S11316205B016C01C0E0D0E0E7E2F1E07C2F608573
S113163061FFF8C02081318142815381E480F580CB
S113164006811781D601C501821B930BA40BB50B30
S11316508E159F05A007B10708F4E4C060FF03C01E
S11316606D7F608708C02E0D3F1D401F511F2083D2
S1131670318342835383713021F0723009F0D8C032
S113168096C0809157028A3009F061C08091E401CC
S1131690882309F043C0AEE5B1E0EBEBF1E08CE167
S11316A001900D928150E1F742E551E08FEF809374
S11316B058018093590183E980935D01809146012B
S11316C090914701892B21F550934701409346019E
S11316D089E28093520180910F018823A9F010922E
S11316E00F012CE16FEF7FEF83E90E94670A9927CE
S11316F0282F882349F081E080930F01109247013D
S113170010924601222321F481E08093E40106C073
S11317108091E401882311F40E948D0010925702F5
S11317208091BA01882389F48091C1019927982F67
S113173088272091C2013327822B932B0196809313
S1131740C201892F99278093C1011092BA018FB7E2
S1131750F894282F3327122F80911E01882389F4AF
S113176091E090931E011092AB012FBF80911F0155
S1131770882321F48EE00E941C015AC0909320011A
S113178057C080E00E94F901882319F085E090E0B9
S113179007C08091880181608093880180E090E097
S11317A01FBF892B09F444C00E948D0041C09FB71C
S11317B0F89420911E01222319F421E030E00FC097
S11317C080910D01813019F020E030E008C040E044
S11317D050E02150223010F441E050E09A01892F6A
S11317E099278FBF222321F18FB7F894082F11274F
S11317F0902F80910D01813099F480911E018130E8
S113180021F48DE00E941C0109C0823049F48091CA
S1131810AB0180930D0183E080931E010FBF08C0CC
S11318209FBF06C021963996C330D10509F0FECE7C
S11318308BE00E941C01DF91CF911F910F91FF90CB
S1131840EF90DF90CF90BF90AF900895CF92DF924A
S1131850EF92FF920F931F93CF93DF938C01F62E99
S11318606A01E22E8FB7F894C82FDD2760E080E08C
S11318700E94B000882321F0CFBF80E090E01EC01A
S1131880CFBF0F0D111D802F80680E944301F82ED9
S113189016950795802F807C0E9443010E2D0AC067
S11318A0EE2DFF27E01BF109EC0DFD1D80810E9448
S11318B0430101500023A1F78F2D9927DF91CF9188
S11318C01F910F91FF90EF90DF90CF900895CF93E9
S11318D0DF93CDB7DEB724970FB6F894DEBF0FBE03
S11318E0CDBF8FB7F89499272091AD013091AE0107
S11318F02983232F33272A8320913B0230913C02F2
S11319002B83232F33272C838FBF24E0AE014F5F1B
S11319105F4F60E088E691E00E94260C24960FB6A3
S1131920F894DEBF0FBECDBFDF91CF9108951F9312
S1131930CF93DF93182F8FB7F894C82FDD2760E07B
S113194080E00E94B000882321F0CFBF80E090E0C7
S113195005C0CFBF812F0E9443019927DF91CF910A
S11319601F9108950E94D503C09AC09888E00E94F0
S1131970970C88E00E94970CC09A84E00E942C097E
S11319800E947A0908950F931F93182F042FE82FAC
S1131990FF27EE0FFF1FEA5BFE4F118210821092A9
S11319A00F01E0914601F0914701309721F08091B9
S11319B0390280FF13C081E080930F0103C083E1EB
S11319C00E941C011123E1F4002319F40E948400F5
S11319D002C00E948D001092E40112C020812D509B
S11319E0332767817727762F662786819927682B87
S11319F0792BAF0183850E94670A882319F3DFCF0F
S1131A001F910F910895CF92DF92EF92FF920F935F
S1131A101F93CFB6F894DD240E94F003DC01CB01C0
S1131A2066E470E00E94A51A1BE0E12EF12CE80E9A
S1131A30F91EF092A901E092A8010E947004002707
S1131A401127A80197010E942D05CFBE1F910F9168
S1131A50FF90EF90DF90CF9008951F93CF93DF9383
S1131A608FB7F894C82FDD271C2F80911601909111
S1131A7017010897C9F489E00E94970C83E00E943B
S1131A802C09C09A81E090E090931701809316018D
S1131A908FB7F894992723E0209310018FBF82E039
S1131AA00E941C01CFBF30C0C0988091A20188233E
S1131AB011F085E001C084E00E94970C83FD09C009
S1131AC080E00E94970C83FF04C085E090E020E052
S1131AD003C083E090E021E0909317018093160106
S1131AE0C09A1FBF222341F01092B00183E00E94EC
S1131AF02C090E94030D08C00E94700420E431E008
S1131B0040E050E00E942D05DF91CF911F91089590
S1131B10EF92FF920F931F93CF93DF938B018091EA
S1131B20B2019091B30186FF2AC18F7B8F3309F0F4
S1131B3078C1C0912401D091250158815093450169
S1131B4080918E0190918F018330910509F443C0F7
S1131B508430910509F48AC0029709F009C183E031
S1131B6090E090938F0180938E0140914B01852FDB
S1131B7099270196242F3327281739074CF1B79951
S1131B8006C00E9904C0451B415040934B0140913F
S1131B9045014A32E8F44423A1F0BE016F5F7F4F50
S1131BA0483018F047E050E007C084E090E090939C
S1131BB08F0180938E01552780E090E00E94BD0143
S1131BC030C110928901C09A84E00E942C09CDC0D2
S1131BD00E94B20C26C184E090E090938F01809320
S1131BE08E0180919401882309F439C080919D016C
S1131BF08823A9F5898185FF32C08F814E812FB753
S1131C00F894332760913B0270913C022FBF9927CF
S1131C10982F88275527842B952B8617970759F0DB
S1131C208F812E819927982F88273327822B932BF6
S1131C308F5F9F4FA1F489818770813081F4C09AAE
S1131C40C0988AE00E94970CC09AC09840914501C0
S1131C5047502896BE018FE30E94A303E2C040913F
S1131C604501475055272896BE01A6CFC09A8091BA
S1131C705902882319F484E00E942C098091D90127
S1131C808823A1F1809145018B30B0F1E091AF013F
S1131C90FF27EE0FFF1FEE0FFF1FE45AFD4F2081B9
S1131CA0318142815381E0912401F091250121ABDE
S1131CB0BB27A52F942F832F80ABCA01AA27BB274C
S1131CC087A7252F33274427552726A78091AF01BF
S1131CD09927019668E070E00E94B91A8093AF01D9
S1131CE08091D90181508093D90106C0809124014B
S1131CF0909125010E94E10380914501FE01E80FC6
S1131D00F11D808187FF31C0012B79F169816770F2
S1131D10E0912401F0912501623019F5A0919B0115
S1131D20B0919C01109709F18091160190911701CF
S1131D300797D9F4ED019B8183819817B1F487B794
S1131D408F7E87BF908181E08CA7E90FF11D82917E
S1131D50319688A780818F7789A780E00E94150932
S1131D6004C0613011F489E02AC00E947A0959C084
S1131D7010928901C09A84E00E942C0952C08E33CB
S1131D8009F04FC0C09A80911601909117010897ED
S1131D90C9F4C09889E00E94970CC09A83E00E941D
S1131DA02C0981E090E090931701809316018FB77E
S1131DB0F894992723E0209310018FBF82E00E94BA
S1131DC01C012FC08091A201882349F484E090E093
S1131DD090931701809316010E942D0D22C083E079
S1131DE00E942C0983E090E09093170180931601E0
S1131DF00E94F003DC01CB0166E371E00E94A51AA6
S1131E000BE0E02EF12CE80EF91EF0929A01E0921C
S1131E1099010E94700400271127A80197010E94CC
S1131E202D05DF91CF911F910F91FF90EF900895B1
S1131E301F920F920FB60F9211242F933F934F933B
S1131E405F936F937F938F939F93AF93BF93EF931E
S1131E50FF932FB1E0914901F0914A01309739F095
S1131E6080918A0190918B01E80FF91F2083809162
S1131E708A0190918B01019690938B0180938A0142
S1131E8080E00E94C7004091E1015091E2018091FD
S1131E908A0190918B018417950718F40E944F01D1
S1131EA01CC06091490170914A018091A6019091F2
S1131EB0A70110924A01109249011092A7011092B1
S1131EC0A6011092E2011092E10110928B0110928E
S1131ED08A012FB120E00E94880DFF91EF91BF91FC
S1131EE0AF919F918F917F916F915F914F913F91AE
S1131EF02F910F900FBE0F901F901895AF92BF9225
S1131F00CF92DF92EF92FF920F931F93CF93DF93C1
S1131F10E82FFF27E431F10508F080C5EA5BFF4FA5
S1131F20EE0FFF1F0590F491E02D09948091390282
S1131F30882309F473C520E011E027C50FB7F8948E
S1131F40112781E00E94480581E0E82EF12CF092EF
S1131F501701E092160110921801109223011092B9
S1131F6038020FBF0FB7F89411270E94D503F092DF
S1131F708F01E0928E011092890189B78F7B89BF0E
S1131F8080E488BF8AB780628ABF8AB78F7E8ABF9F
S1131F9089B7806489BF0FBF8FB7F894C82FDD2736
S1131FA08091110190911201049719F483E00E9429
S1131FB0970CCFBF0FB7F8941127C09A80E00E9406
S1131FC02C090FBF8FB7F894992722E020939F0123
S1131FD08FBF4091BD015527542F44278091BE01E6
S1131FE09927482B592B6627772781E00E94850380
S1131FF01092570213C58FB7F894992710929F0136
S113200074C08FB7F8949927F09010018FBF63E0E4
S113201081E00E94B000882359F10FB7F89411278A
S1132020109217011092160187B78F7E87BF87B76A
S11320308F7D87BF83E00E942C09C09A0FBF0FB722
S1132040F894112710928F0110928E010E94D503EB
S1132050C09A89B78F7B89BF0FBF1092120110926B
S11320601101DE98DD98DE9A81E00E941C0107C010
S11320708FB7F894992722E020939F018FBFC091D6
S11320805202D09153020E94DE0180910F018823F5
S113209009F0C4C460914601709147016C177D0733
S11320A009F0BCC44F2D9BC48FB7F894282F332755
S11320B0122F80918C01882309F049C381E0809319
S11320C08C018091110190911201049721F481E017
S11320D00E94000803C084E00E941C011FBF9EC42C
S11320E08FB7F894992710928C018FBF97C48FB73C
S11320F0F894282F332780911301882309F027C3EC
S11321002FBF80B3992716E0969587951A95E1F726
S1132110182F1170909143018091AC018917D9F067
S11321201917C9F484E090E090931201809311018F
S11321308FB7F894992721E0209313018FBF60E0B3
S113214070E08DE10E94AF090E94670CC09AC098AC
S113215080E00E941C011093AC0185E068C08FB739
S1132160F8949927109102018FBF123009F462C0CC
S1132170133030F4112359F0113009F04FC443C027
S1132180133009F471C0143009F048C49DC0C098DC
S11321908FB7F894C82FDD27809111019091120117
S11321A0029779F583E090E09093120180931101F6
S11321B068E170E08DE10E94AF0981E08093430102
S11321C01092130180B39927B6E096958795BA9536
S11321D0E1F7817090708093AC0185E00E941C014E
S11321E081E00E94970C6FE772E08CE10E94AF09D6
S11321F00E94100A0E94D60966E57AE287E10E94ED
S1132200AF09CFBF0BC4C09886E00E94970C0E9410
S1132210100A0E94D6090E94670CC09AC09883E0F5
S11322200E94970CC09A81E00E942C0984E00E94CD
S11322301C01F4C3C0988FB7F894C82FDD2760E061
S113224080E00E94B000882311F0CFBF0AC0CFBF46
S113225083E50E94430180E00E94430180E00E94E4
S11322604301C09A82E02DC08FB7F894992720913A
S113227016018FBF243039F0283041F0223001F5A7
S11322800E94210ACBC30E942D0DC8C3C09889E0C7
S11322900E94970CC09A83E00E942C098FB7F8948F
S11322A0992721E030E030931701209316018FBF66
S11322B08FB7F8949927109310018FBF82E0B7CF9E
S11322C083E00E942C09AAC30E94F607A7C30FB794
S11322D0F89411274091E1015091E2016091490184
S11322E070914A018091A6019091A70110924A0130
S11322F0109249011092A7011092A6011092E201D6
S11323001092E10110928B0110928A0120E00E9448
S1132310880D0FBF83C32FB7F89433278091DB0157
S11323208093050182E0809315012FBF8091050100
S1132330882309F073C3B89AC09886E078CFA09137
S11323402401B09125011C91FD01E10FF11D808153
S1132350881F8827881FED018BA780818F7789A725
S11323603197808188A7E0912401F09125018FB7EE
S1132370F894992720918D018FBF2223F9F087814A
S113238046812FB7F894332760913B0270913C0249
S11323902FBF9927982F88275527842B952B86178D
S11323A0970761F0878126819927982F88273327FB
S11323B0822B932B8F5F9F4F09F0E2C01D3008F4EE
S11323C0DFC0C0912401D09125018A858F3309F0A3
S11323D0D3C0898528859927582F44273327422B32
S11323E0532B6B818FEF809358028FB7F894782F1B
S11323F020E030E0E1E2F2E08081918184179507EA
S113240029F48281861731F1209358022F5F3F4FC0
S113241033962430310581F77FBF909158023FB73E
S1132420F8949F3F21F0809119018917A9F4209114
S11324301901822F9927FC01EE0FFF1FE80FF91FE6
S1132440EF5DFD4F5183408362832F5F23702093A0
S113245019010EC07FBF90C0892F9927FC01EE0F90
S1132460FF1FE80FF91FEF5DFD4F51834083628327
S1132470832F99278FBF8BA5882309F47DC08F8173
S11324804E812FB7F89433276091060170910701AC
S11324902FBF9927982F88275527842B952B86178C
S11324A0970761F08F812E819927982F88273327EA
S11324B0822B932B8F5F9F4F09F05EC08B858339EE
S11324C009F05AC02FB7F89433278BB311E0812752
S11324D08BBB2FBF8C852D859927582F44273327F5
S11324E0422B532B8091BB019927982F8827209149
S11324F0BC013327822B932B8417950700F5409357
S1132500BC01852F99278093BB018E852F85992740
S1132510982F88273327822B932B8093BE01492F32
S113252055274093BD01542F44279927482B592BF5
S11325306627772781E00E948503109257028A89D3
S11325402B899927582F44273327422B532B8091CB
S1132550C1019927982F88272091C2013327822B04
S1132560932B8417950740F44093C201852F992734
S11325708093C1011093BA01D0932501C093240123
S11325808FB7F8949927109289018FBF0E947A0916
S113259045C280914201882361F520912D0230913A
S11325A02E0240912F0250913002EFB7F894FF278A
S11325B06091B6017091B7018091B8019091B90111
S11325C0E0901B02F0901C0200911D0210911E026B
S11325D06E0D7F1D801F911FEFBF20932D0230933E
S11325E02E0240932F0250933002109242010E9417
S11325F06B030E94A20243C00E94A2025B016C0111
S11326008FB7F89499271092E5018FBF8FEFE82ECA
S11326108FEFF82E8FEF082F8FE7182F60E0E7E297
S1132620F1E0808581FF1CC080819181A281B3810A
S1132630A6019501281B390B4A0B5B0BDA01C90172
S11326402481358146815781281B390B4A0B5B0B4A
S11326502E153F05400751071CF479018A0161E0FA
S1132660399631E0E234F307E1F6662309F4D6C182
S11326701E141F04100611062CF0C601B5010E9499
S1132680060BCCC1E0922D02F0922E0200932F0291
S11326901093300281E080934201A8019701C601A2
S11326A0B5010E946B03BAC12FB7F8943327809108
S11326B0AA0180930B0153E050931A012FBF20917C
S11326C00B018FB7F894992720930C018FBF222315
S11326D009F0A4C18FB7F894282F332780910C01F7
S11326E0882309F034C02FBF8FB7F894992720911D
S11326F01B01213009F0F9CC42E040931B018FBF4C
S11327002FB7F894332788E590E09093560280938E
S113271055028CE491E09093A5018093A401409329
S1132720B10150934E0110924F0110921C012FBF22
S11327300E94E1022FB7F89433278091E601816E5D
S11327408093E60195E090931B01809374002FBF62
S113275065C18FB7F89499272091AB0120930D019F
S113276023E020931E018FBF80910D01882309F07F
S113277055C18FB7F894C82FDD2780912201882393
S113278039F581E0809322011092DC01CFBF8FB72D
S1132790F8949927379A8FBF8FB7F894C82FDD27FD
S11327A09C2F80910E01813089F480912201813027
S11327B021F480E10E941C0124CD823039F48091FF
S11327C0DC0180930E01209322011BCD9FBF26C103
S11327D080E00E94E501882309F013CD8091D8019F
S11327E081608093D8010DCD0E94C90217C1AD98B4
S11327F0A59880912001813011F40E94C9028FB7FD
S1132800F89499271092200110921F016ECC2FB7D3
S1132810F89433278091DC0180930E0183E0809348
S113282022012FBF80910E01882309F0F7C081E0B7
S11328308093DA011092E3010E940D02EFC010921E
S1132840DA01C0905001D09051018091E3018823B6
S113285009F0E4C08FB7F894E82E80912201833008
S1132860E9F580910E018823C9F58091D801882368
S113287009F0BFC0B7C0EF2DE695E695E695FF27B2
S11328804F2D5527E852FE4F9A012770307081E092
S113289090E002C0880F991F2A95E2F78095208165
S11328A028232083C093210111C02196C130D10572
S11328B011F4C0E0D0E0FC2E8C2F0E94E5018823A7
S11328C0D1F6C017D10789F74FEF50E04093DC01F0
S11328D081E08093220180E10E941C01EFBE8FB74A
S11328E0F894E82E80911E018330E9F580910D0162
S11328F08823C9F580918801882309F089C07FC0A5
S1132900EF2DE695E695E695FF274F2D5527E857D9
S1132910FE4F9A012770307081E090E002C0880F6A
S1132920991F2A95E2F78095208128232083C0935C
S11329301D0111C02196C130D10511F4C0E0D0E0D1
S1132940FC2E8C2F0E94F9018823D1F6C017D107E1
S113295089F74FEF50E04093AB0181E080931E0173
S11329608DE00E941C01EFBEE0915702EF5FE093FF
S11329705702E150FF27EE0FFF1FED53FE4FC182B8
S11329808D2D992780834AC0110F90913902812F90
S11329908923B1F0E22FFF27EE0FFF1FEA5BFE4F02
S11329A011821082812F80959823909339022223DB
S11329B039F40E948D001092E401110F21E0E5CF5B
S11329C02F5F283008F32AC080910F01E82FFF27DA
S11329D0EE0FFF1FEA5BFE4F6081718141E00E94B0
S11329E0C30C1CC081E080930E0110922201379821
S11329F075CF80912101082F1127E80156CF81E07E
S1132A0080930D0110921E0180931F018FE0A9CFC6
S1132A1080911D01082F1127E8018CCFDF91CF9100
S1132A201F910F91FF90EF90DF90CF90BF90AF90E8
S1132A30089580913A028F3FB1F0282F3327F9018E
S1132A40E35CFD4F808180933A028F3F11F48093C1
S1132A5054028FEF80832F3F31F0822F0E947E0F2C
S1132A6081E090E0089580E090E0089578941F92CA
S1132A700F920FB60F9211242F923F924F925F92B2
S1132A806F927F928F929F92AF92BF92CF92DF927A
S1132A90EF92FF920F931F932F933F934F935F9364
S1132AA06F937F938F939F93AF93BF93EF93FF9312
S1132AB0CF93DF93CDB7DEB72F97F894DEBF78942A
S1132AC0CDBF2CB53DB53F872E8780E286BF0E94DF
S1132AD070049B01AC018E859F857C010027112722
S1132AE0DA01C901A070B0708E159F05A007B10767
S1132AF098F4212C312C7FEF472E7FEF572E220E96
S1132B00331E441E551E80E090E0AFEFBFEF282235
S1132B1039224A225B220AC0212C312C6FEF462E27
S1132B206FEF562E22223322442255222E283F288C
S1132B30402A512A8FB7F894898380911601909185
S1132B4017018530910521F0069709F0DBC0BAC062
S1132B5086E090E0909317018093160191E09093A2
S1132B60D70180E00E94480520919B0130919C018F
S1132B70F90121AABB27A52D942D832D8A839B833C
S1132B80AC83BD8380ABC201AA27BB278E839F83FE
S1132B90A887B98787A7852D9927AA27BB278A875E
S1132BA09B87AC87BD8786A7E0919B01F0919C0130
S1132BB085A5882309F464C080813C968550E80F7C
S1132BC0F11D94EF892E9FEF992E8E0E9F1ED40136
S1132BD02C9185EF682E8FEF782E6E0E7F1ED30119
S1132BE0EC90BF016A507040DB018C913997A08052
S1132BF09927AA27BB27BA2FA92F982F88273327CD
S1132C0044275527522F442733272227FF24002700
S1132C1011278701FF24EE242E293F29402B512B15
S1132C20BB24CC24DD242A293B294C295D29822B71
S1132C30932BA42BB52B82199309A409B50980837E
S1132C40292F3A2F4B2F5527FB0120839D01442721
S1132C505527F30120838B2F9927AA27BB27F4013B
S1132C608083C098E0919B01F0919C016081655044
S1132C70772724E0A40180E090E00E94260CC09A0B
S1132C80E0919B01F0919C01818185FF03C0F1E0FB
S1132C90F093230183E00E942C0987B78F7E87BFBE
S1132CA0A0919B01B0919C01FD01818187708130CD
S1132CB039F421AA2A8120AB3E8137A78A8586A7C9
S1132CC084996DC01092D70181E00E944805E0917B
S1132CD09B01F0919C01818185FF0FC087E090E00A
S1132CE090931701809316010E94700420E031E054
S1132CF040E050E00E942D0503C080E00E941509C9
S1132D00849B4DC080911801882349F511E01093EC
S1132D10D7010E9448058091D901883098F4E09148
S1132D20AF01E80FFF27E770F070EE0FFF1FEE0F03
S1132D30FF1FE45AFD4F20823182428253828F5F0B
S1132D408093D90110931801AE85BF85B0932002FA
S1132D50A0931F02849B03C0B981BFBF22C01092FD
S1132D60D70181E00E9448051092180180911F024A
S1132D7090912002EE85FF85E81BF90B3A9778F4D1
S1132D808091D901882319F081508093D9018091D1
S1132D909B0190919C01009711F00E94E103F9813D
S1132DA0FFBF2F96F894DEBFCDBFDF91CF91FF9187
S1132DB0EF91BF91AF919F918F917F916F915F91AF
S1132DC04F913F912F911F910F91FF90EF90DF90C2
S1132DD0CF90BF90AF909F908F907F906F905F90B7
S1132DE04F903F902F900F900FBE0F901F9018950B
S1132DF078941F920F920FB60F9211241F932F9362
S1132E003F934F935F936F937F938F939F93AF936E
S1132E10BF93EF93FF9387B78F7E87BF78941FB7D5
S1132E20F8948091320290913302A0913402B091CF
S1132E3035020097A105B10509F051C08091160132
S1132E40909117018530910561F18630910530F438
S1132E508330910549F0049781F51AC087309105B4
S1132E60F1F0089751F514C0869B0FC084E090E000
S1132E7090931701809316010E94700427E030E0BC
S1132E8040E050E00E942D0518C00E94030D15C0BB
S1132E900E94A708882389F40E942D0D0EC080E0AB
S1132EA00AC089E00E94970C81E00E94480583E0F3
S1132EB00E942C0987E00E941509809111019091CC
S1132EC01201019771F482E090E0909312018093D3
S1132ED01101DE98DE9A80E00E94000802C00E9480
S1132EE08D04812F99278FBFFF91EF91BF91AF91EF
S1132EF09F918F917F916F915F914F913F912F910E
S1132F001F910F900FBE0F901F901895CFEFD0E137
S1132F10DEBFCDBF1FB7F89444E150E06FEF70E01F
S1132F208DE392E00E94921A8FEF80933A0280938D
S1132F30540281E08EBD88E080BF83E083BF8CB5FE
S1132F409DB54AE72CB53DB52817390708F441501B
S1132F50442311F0C901F6CF92B782B78917E9F378
S1132F602CB53DB592B782B78917E9F38CB59DB5F9
S1132F70821B930B4096F5E096958795FA95E1F7B9
S1132F809093B5018093B40113BE83B78EBD8EB503
S1132F9080BF12BE1DBC1CBC8FEF86BF86B780935A
S1132FA07C0080B7992787709070892BD1F7D29ACB
S1132FB0D19AD09ADA9AD99AD89A15BA8FEF84BB53
S1132FC0D498DC9816B81DBC1CBC87B7846087BF36
S1132FD08EB5887F84608EBD80E285BF0E941915FE
S1132FE08823E1F71092D801109288018FEF809323
S1132FF04801E1E2F2E08FEF9FEF91838083128238
S1133000339622E0ED32F207C1F70E94F003609399
S1133010260180910001909101010196AA27BB2706
S11330208093900190939101A0939201B0939301A6
S113303080B7886080BF8BE083BF86EE81BF87B78F
S1133040826087BF0E94EA0287EE91E09093250197
S1133050809324018E98B89A8C988FEF80935B02AA
S113306010929E0110929F011092A0011092A10152
S1133070B89AD69AD59A8FB7F894992720910601D1
S1133080309107018FBF30933C0220933B02809123
S1133090080199279093AE018093AD018FE180934D
S11330A0A3018AE18093310281E080938D01109223
S11330B036028093940110929D010E941915882371
S11330C0E1F7812F99278FBF78941092BE0181E098
S11330D08093BD0180910001909101018093C00112
S11330E0892F99278093BF0161E081E00E949600B7
S11330F08823E9F48FB7F894282F3327809111019E
S113310090911201892B11F02FBF1FC081E090E034
S113311090931201809311012FBFDD9A0E947004D5
S113312024E130E040E050E00E942D050EC062E052
S113313081E00E94B000882309F070C061E081E062
S11331400E94B000882309F469C08FB7F894482F0F
S1133150552749C087B7992783709070892B19F434
S1133160E5E0F0E013C080B7992787709070892B51
S1133170D1F781B792B7891B8C3030F082B7853F85
S113318018F4E3E0F0E002C0E2E0F0E087B7887B07
S1133190C1F480917D008B7FA1F46E9912C08AB135
S11331A090919A00892B807C61F48091740082FD57
S11331B008C0379B03C081E090E005C085E090E043
S11331C002C080E090E025B78E1708F4E82FFF27AF
S11331D0EC54FF4FC895E02D237E2062E22BE5BF1F
S11331E078948895F89480913A028F3F09F4B2CF8D
S11331F0282F3327F901E35CFD4F808180933A0245
S11332008F3F11F4809354028FEF80832F3F09F492
S1133210A1CF4FBF822F0E947E0F97CF0E948D00B7
S113322094CFACE2B0E0E7E1F9E10C94EB1A222E82
S1133230332E442E552E662E772E882E992EFE017F
S11332403196A8E01192AA95E9F729823A824B8235
S11332505C826D827E828F829886FE013996B8E008
S11332601192BA95E9F7A986BA86CB86DC86ED86F3
S1133270FE860F87188B89819A81AB81BC8189A7CF
S11332809AA7ABA7BCA77C018D018FEF9FEFA0E0AD
S1133290B0E0E822F9220A231B2389A59AA5ABA54D
S11332A0BCA51D014424552489859A85AB85BC851C
S11332B08DA39EA3AFA3B8A75C016D018FEF9FEF11
S11332C0A0E0B0E0A822B922CA22DB228DA19EA1EF
S11332D0AFA1B8A53D0188249924C801B701A6016E
S11332E095010E94CC1A69A37AA38BA39CA3C8015D
S11332F0B701A40193010E94CC1A7B018C01C20185
S1133300B101A60195010E94CC1A5B016C01C201B6
S1133310B101A40193010E94CC1A3B014C01EA0CB7
S1133320FB1C0C1D1D1D89A19AA1ABA1BCA19D0173
S1133330442755272E0D3F1D401F511F2A153B05BD
S11333404C055D0540F480E090E0A1E0B0E0680E3B
S1133350791E8A1E9B1ECA01AA27BB27860D971DAC
S1133360A81DB91D8D8F9E8FAF8FB8A3A9013327D8
S1133370222789A19AA1ABA1BCA1A070B070280F8B
S1133380391F4A1F5B1F298F3A8F4B8F5C8FA98C83
S1133390BA8CCB8CDC8CED8CFE8C0F8D18A1FE01CD
S11333A0719698E011929A95E9F7ED8AFE8A0F8B4F
S11333B0188F2D813E814F8158856DA17EA18FA1EB
S11333C098A50E94CC1A3B014C012D853E854F8562
S11333D0588969A57AA58BA59CA50E94CC1A2D892C
S11333E03E894F89588D260F371F481F591F260DB8
S11333F0371D481D591D2D8B3E8B4F8B588F6D8863
S11334007E888F88988C2A2D3B2D4C2D5D2D662D22
S1133410772D882D992DE2E1AC960C94071BA0E141
S1133420B0E0E5E1FAE10C94EB1A222E332E442E9F
S1133430552E662E772E882E992E002309F466C009
S113344088E0FE01319611928A95E9F729833A833F
S11334504B835C836D837E838F829887E0E2E01BDD
S11334601E16CCF52D813E814F815885602F77271C
S113347067FD7095DA01C901062E04C0B695A795BB
S1133480979587950A94D2F78D879E87AF87B88BD7
S113349004C0220F331F441F551FEA95D2F78981B8
S11334A09A81AB81BC8104C0B695A7959795879501
S11334B06A95D2F7282B392B4A2B5B2B29873A871D
S11334C04B875C8729843A844B845C846D847E8436
S11334D08F8498881BC01D861E861F86188A2E2FEF
S11334E0332727FD3095309521953F4F8D819E815F
S11334F0AF81B88504C0B695A795979587952A9509
S1133500D2F789879A87AB87BC87DCCF222D332DEE
S1133510442D552D662D772D882D992DE2E1609649
S11335200C94071BDC0101C06D9341505040E0F73F
S11335300895991B79E004C0991F961708F0961B0B
S1133540881F7A95C9F780950895AA1BBB1B51E182
S113355007C0AA1FBB1FA617B70710F0A61BB70BFF
S1133560881F991F5A95A9F780959095BC01CD01A4
S1133570089597FB092E07260AD077FD04D0E5DFCE
S113358006D000201AF4709561957F4F0895F6F7E0
S1133590909581959F4F0895629FD001739FF0018C
S11335A0829FE00DF11D649FE00DF11D929FF00DCF
S11335B0839FF00D749FF00D659FF00D9927729F06
S11335C0B00DE11DF91F639FB00DE11DF91FBD0191
S11335D0CF01112408952F923F924F925F926F92E0
S11335E07F928F929F92AF92BF92CF92DF92EF928F
S11335F0FF920F931F93CF93DF93CDB7DEB7CA1B10
S1133600DB0B0FB6F894DEBF0FBECDBF09942A883A
S1133610398848885F846E847D848C849B84AA84E2
S1133620B984C884DF80EE80FD800C811B81AA816F
S1133630B981CE0FD11D0FB6F894DEBF0FBECDBF3A
S1093640ED010895FFCF27
S11336460100FFFFFFFF010022FFFF01FF0101014F
S9030000FC
