S01800006275696C642F6D6963617A2F6D61696E2E73726563E5
S11300000C9449000C9433050C943D050C9447055D
S11300100C9451050C945B050C9465050C94BB0A77
S11300200C946F050C9468000C9468000C94420BBB
S11300300C9402160C94FD040C9413050C94EB051B
S11300400C94EC040C94190F0C9468000C94680044
S11300500C9468000C9479050C9468000C94680066
S11300600C9408050C9468000C9468000C946800C7
S11300700C9468000C9468000C9468000C9468005C
S11300800C9468000C9468000C94680000081C1818
S1130090141011241FBECFEFD0E1DEBFCDBF11E09D
S11300A0A0E0B1E0E4E4F1E300E00BBF02C007909C
S11300B00D92AC30B107D9F712E0ACE0B1E001C069
S11300C01D92A635B107E1F70E947C140C94A11887
S11300D00C9400008FB7F894992708958FBF089562
S11300E08FB7F89499272BB332E023272BBB8FBF0C
S11300F008958FB7F89499272BB334E023272BBBAB
S11301008FBF0895282F9FB7F894662349F0E82FEE
S1130110FF27EB57FE4F8081882311F021E006C0B2
S1130120E22FFF27EB57FE4F608320E0892F9927AA
S11301308FBF822F99270895E82F8FB7F894282F1F
S1130140332790E0FF27EB57FE4F8081861709F491
S113015091E02FBF892F99270895882311F06E9A73
S113016008956E980895882311F06F9A08956F98F2
S1130170089580E00E94AD00BA9ABB98B99A6C9A2F
S113018080E00E94B300709A6B986A98689881E046
S11301900E94AD000895282F9FB7F894E82FFF27F9
S11301A0E35EFD4F80818F3F81F4E0913002E217DE
S11301B071F40BC020931A0204C0FF27E35EFD4FC5
S11301C020832093300220E007C025E005C0809101
S11301D01A028F3F91F7EECF892F99278FBF822F75
S11301E0992708951F93182F81E00E94AD001FB92D
S11301F0779BFECF8FB199271F9108958F929F927D
S1130200AF92BF92CF92DF92EF92FF920F931F9320
S1130210CF93DF938FB7F8949927C0908B01D09038
S11302208C018090340190903501C0917101D0917E
S113023072012091C2013091C3019AE0A92EB12C20
S1130240AC0EBD1E2A153B0508F459018FBF74017D
S1130250EC0EFD1E86010C0F1D1F14C0C114D10429
S113026019F0F801808101C080E00E94F20081143D
S1130270910411F0F701808321960894E11CF11C8C
S11302800F5F1F4FC5010197C817D90738F381E0E5
S11302900E94B3009FB7F894C114D10431F0CC0E7E
S11302A0DD1EF60180818FB901C01FB8D0937201A1
S11302B0C0937101892F99278FBF80E090E0DF916F
S11302C0CF911F910F91FF90EF90DF90CF90BF904F
S11302D0AF909F908F9008952FB7F8943327509341
S11302E0C3014093C20190938C0180938B0170935E
S11302F035016093340110927201109271012FBF85
S1130300452B29F08FB10E94FE009927089587E0BC
S11303100E94CB0080E090E008958FB7F89499276D
S1130320109287018FBF0895982F9695969596956C
S1130330EFE6F1E0E90FF11D877021E030E002C043
S1130340220F331F8A95E2F780818223992708952B
S11303508091C401882319F02FE170E002C078E095
S11303602EE1622FEFB7F89480912D028E7F809357
S11303702D0287B1982F9F718295869586958370FB
S113038019F080E090E012C0822F8850863118F076
S113039081E090E00BC040E050E03327892F99279B
S11303A02817390711F441E050E0CA01982F9170E1
S11303B0990F80912D028178262F2F71422F440F9F
S11303C0440F892B842B80932D02332727B978304F
S11303D059F5809197019091980121E08638920710
S11303E018F087E090E01FC0833C910518F086E088
S11303F090E019C08136910518F085E090E013C0B3
S11304008033910518F084E090E00DC088319105A7
S113041018F083E090E007C00C9718F082E090E0B9
S113042002C080E090E0782F7770887D872B886DFC
S1130430992786B98E2F99278FBF08957FB7F8948F
S113044062B72091BE013091BF014091C00150912B
S1130450C10106B601FE0FC081B792B7280F311D46
S1130460411D511D2F5F3F4F4F4F5F4F290F311DCE
S1130470411D511D04C0260F311D411D511D872FE3
S113048099278FBFCA01B9010895DF92EF92FF92B5
S11304900F931F938FB7F894282F3327D22E91B739
S11304A082B746B7981711F041FF02C02FBF6AC048
S11304B08091C6018823E1F10E941E02E090990117
S11304C0F0909A0100919B0110919C012091FB01F5
S11304D03091FC014091FD015091FE016E197F099C
S11304E0800B910B621773078407950720F0109215
S11304F0C60171E01EC02E0D3F1D401F511F80918B
S1130500BE019091BF01A091C001B091C101281B0F
S1130510390B4A0B5B0B273E31054105510540F46D
S1130520822F223010F070E005C070E082E002C03B
S113053070E086EE682F615000B601FCFDCF82B7F3
S1130540681709F46F5F2091BE013091BF0140919B
S1130550C0015091C101DA01C9010196A11DB11D6B
S1130560860F911DA11DB11D82179307A407B5071E
S113057010F4622F609561BFDFBE772319F08AE023
S11305800E94CB001F910F91FF90EF90DF90089590
S1130590AFB7F894BB27E1E0E093C60160939901FB
S11305A070939A0180939B0190939C012093FB018B
S11305B03093FC014093FD015093FE01AFBF0E94B4
S11305C045020895DF92EF92FF920F931F93D82E66
S11305D07A018B010E941E0229E0D29EF0011124AF
S11305E0E45EFE4F6083718382839383E482F582A9
S11305F00683178380858E7F826080878BE00E94CC
S1130600CB001F910F91FF90EF90DF9008951F93FF
S113061080911001882309F046C0109102011F3F08
S113062009F041C060E00E949C008823E1F181E070
S113063080933001809118018823C1F11092300118
S113064085E090E041C0923049F5C09A8091030161
S113065090E08F3F09F491E09923D9F48F3F19F486
S11306602FEF30E00DC0282F3327F901EB5CFD4F4D
S11306708081809303018F3F11F4809304011083E0
S11306802093BD0181E08093110188E00E94CB009A
S113069005C0109305011092110111C08091110140
S11306A0882369F00FC081E090E00EC080910501BD
S11306B090911101882339F2923021F0EFCF80E03C
S11306C00E94AD0080E090E01F91089580E880933F
S11306D0360110927001109293011092BB01109296
S11306E033020895CF93DF93FC0115A6DC019E9697
S11306F0ED011B821A82198280E886A7DF91CF91CF
S113070008952F923F924F925F926F927F928F92B1
S11307109F92AF92BF92CF92DF92EF92FF920F938C
S11307201F93CF93DF93CDB7DEB728970FB6F89416
S1130730DEBF0FBECDBF209077013090780140908E
S1130740790150907A016624772488244EE4A42EFB
S113075033E8B32ECC24DD24EE24FF2400E010E0A3
S1130760222D332D442D552D662D772D882D90E087
S11307700E94901629833A834B835C836D837E8326
S11307808F839887822E932EA42EB52E24013501B3
S113079000E20E948E17A22EB32EC42ED52EC301C2
S11307A0B20196958795779567956A0D7B1D8C1D8B
S11307B09D1D97FF05C09F776F5F7F4F8F4F9F4FA2
S11307C060937701709378018093790190937A0113
S11307D028960FB6F894DEBF0FBECDBFDF91CF9140
S11307E01F910F91FF90EF90DF90CF90BF90AF904B
S11307F09F908F907F906F905F904F903F902F903D
S113080008958FB7F89460916D0170916E012CB5C5
S11308103DB506B602FE04C06F5F7F4F2CB53DB5F3
S113082099278FBF88279927CB01772766274427E5
S11308305527622B732B842B952B0895EF92FF92EF
S11308400F931F930E9401047B018C0120917C0172
S113085030917D0140917E0150917F01809112027F
S113086090911302A0911402B0911502820F931F6C
S1130870A41FB51FE216F3060407150730F082170C
S11308809307A407B50758F005C082179307A40778
S1130890B507E0F5E816F9060A071B07B8F59C0149
S11308A0AD012E193F09400B510B213060E836078A
S11308B060E0460760E0560768F180E090E8A0E059
S11308C0B0E0E80EF91E0A1F1B1FE0927C01F092B3
S11308D07D0100937E0110937F0180E090E8AFEFEB
S11308E0BFEFE80EF91E0A1F1B1F2050304840407E
S11308F050402093120230931302409314025093F9
S1130900150220E030E840E050E014C020E030E080
S113091040E050E080937C0190937D01A0937E01A0
S1130920B0937F01109212021092130210921402DB
S113093010921502A901B7012CB53DB5C9018E1954
S11309409F0903968417950720F0B9016D5F7F4FC7
S113095002C0640F751F6115710511F461E070E048
S1130960615070407BBD6ABD80E186BF87B78061FE
S113097087BF1F910F91FF90EF9008950F931F93DE
S11309800FB7F894112760937C0170937D018093D5
S11309907E0190937F0120931202309313024093BF
S11309A01402509315020E941E040FBF1F910F9151
S11309B0089597B79F7D97BF90E296BF882319F05B
S11309C08EB5806402C08EB58F7B8EBD87B7806282
S11309D087BF80E090E008951F920F920FB60F92A8
S11309E011248F9383B783BF00B600FCFDCF8F9192
S11309F00F900FBE0F901F90189578941F920F922E
S1130A000FB60F9211240F900FBE0F901F901895E0
S1130A1078941F920F920FB60F9211240F900FBE6D
S1130A200F901F90189578941F920F920FB60F9203
S1130A3011242F933F938F939F932FB7F8943327C9
S1130A4080916D0190916E01019690936E01809357
S1130A506D012FBF9F918F913F912F910F900FBEEA
S1130A600F901F9018951F920F920FB60F9211249A
S1130A700F900FBE0F901F9018951F920F920FB6F4
S1130A800F9211240F900FBE0F901F9018951F9274
S1130A900F920FB60F9211240F900FBE0F901F905C
S1130AA018951F920F920FB60F9211240F900FBE3C
S1130AB00F901F9018951F920F920FB60F9211244A
S1130AC00F900FBE0F901F9018951F920F920FB6A4
S1130AD00F9211240F900FBE0F901F9018951F9224
S1130AE00F920FB60F9211240F900FBE0F901F900C
S1130AF018951F920F920FB60F9211242F933F93C4
S1130B004F935F936F937F938F939F93AF93BF9311
S1130B10EF93FF9344B155B178948FB7F894992724
S1130B2020912D02322F3695317021708FBF2223F0
S1130B30D9F433988091BC01813021F0823009F0DE
S1130B4039C00AC0332351F0509338014093370120
S1130B508DE00E94CB002EC0332319F40E94A8011B
S1130B6029C01092BC0126C08FB7F89499278FBF73
S1130B702FB7F894332786B1582F5770482F4072F7
S1130B80987D942B952B8074977B982B90619F77FD
S1130B90892F992786B9887D842B852B877380615B
S1130BA0992786B9887D842B852B877B8069992733
S1130BB086B92FBFFF91EF91BF91AF919F918F9114
S1130BC07F916F915F914F913F912F910F900FBE45
S1130BD00F901F9018951F920F920FB60F92112429
S1130BE02F933F934F935F936F937F938F939F9331
S1130BF0AF93BF93EF93FF9383B783BF00B600FC1B
S1130C00FDCF81B799270196AA27BB272091BE0162
S1130C103091BF014091C0015091C101280F391F8B
S1130C204A1F5B1F2093BE013093BF014093C00154
S1130C305093C10178940E944502FF91EF91BF91B6
S1130C40AF919F918F917F916F915F914F913F9160
S1130C502F910F900FBE0F901F9018950F931F9315
S1130C60CF93DF93182F8FB7F894C82FDD270C2F5D
S1130C7061E080E00E948200882321F0CFBF85E0FC
S1130C8090E024C0809105018823A1F48091110192
S1130C90823081F409C082E0809311011092050131
S1130CA00E94B900B89AC0981093020180E00FBF67
S1130CB099270CC080911101882369F38FB7F894A8
S1130CC09927109285018FBF81E0F1CFDF91CF91F9
S1130CD01F910F9108951F93CF93DF939FB7F894BB
S1130CE0C92FDD271C2F90910201981721F0CFBF47
S1130CF081E090E03AC08FEF8093020130911001BF
S1130D003323F1F48FB7F8949927109285018FBF9C
S1130D100E940703CFBF11C02093020181E090E03D
S1130D2002C0880F991F4A95E2F7809538233093C3
S1130D30100186E00E94CB001FBF80E090E015C048
S1130D4080E065E0E32FFF270E941818292F492F20
S1130D505527CF01042E02C0959587950A94E2F792
S1130D6080FDDACF822F8F5FEFCFDF91CF911F917C
S1130D7008950F931F93182F0FB7F89461E080E044
S1130D800E948200882371F510930201809105016D
S1130D908823A9F580911101823089F586E00CC081
S1130DA00E94B90080911101882349F481E0809365
S1130DB011011092BD0188E00E94CB002AC08091ED
S1130DC035028F3F31F5E0910401EE2311F11CC08F
S1130DD01092030104C0FF27EB5CFD4F10821092B8
S1130DE0040117C081E090E002C0880F991F1A9592
S1130DF0E2F720911001282B209310010AC0809162
S1130E0011018823E1F6CCCF809103018F3F19F7BC
S1130E10DFCF802F99278FBF80E090E01F910F9143
S1130E2008951F9383E00E942E069927182F882384
S1130E3019F083E00E94B906812F99271F91089524
S1130E40FF920F931F93CF93DF93F82E8B018FB7ED
S1130E50F894C82FDD2760E080E00E949C0088237E
S1130E6021F0CFBF80E090E00CC0CFBF8F2D0E9457
S1130E70F200812F99270E94F200802F0E94F20035
S1130E809927DF91CF911F910F91FF9008951F93A0
S1130E901FB7F89480917401882319F460E070E01E
S1130EA009C060E080911602882309F461E081E0C2
S1130EB06827772780917B01882319F480E090E0EC
S1130EC00AC090E080918401882309F491E081E0D4
S1130ED09827892F9927762F6627770F770F770F13
S1130EE0E4E0880F991FEA95E1F7826E9262682B1D
S1130EF0792B81E10E942007812F99278FBF1F91B1
S1130F0008958FB7F8949927609111028FBF85E0F7
S1130F10689FB0011124625D7E4F706488E10E9475
S1130F2020070895EF92FF921F93CF93DF93E090F1
S1130F308201F0908301F70182A59927182F882355
S1130F4009F41FE1C09880911802811749F0612FBC
S1130F5077276F717070606E706885E10E9420075A
S1130F6010931802F70110818FB7F894C82FDD276A
S1130F7060E080E00E949C00882311F0CFBF12C083
S1130F80CFBF8EE390E090939601809395018EE31A
S1130F900E94F2001150412F552760E070E0C70114
S1130FA00E946C01DF91CF911F91FF90EF90089503
S1130FB0FF920F931F93CF93DF93EA01F22E8B8757
S1130FC06E83672F77276F832FB7F8943327809129
S1130FD09101909192012FBF8C83892F99278D8342
S1130FE02FB7F894332780910601909107012FBF02
S1130FF08887892F9927898761E082E00E9482008F
S1131000882319F085E090E06CC080911B018F5F0C
S113101080931B0181508B838FE38A878FB7F89469
S1131020082F112762E081E00E949C00882329F4A4
S11310300FBF0E948D0181E053C08FB7F8949927A8
S113104024E0209386018FBFD0932F02C0932E02F9
S11310500FBF8DE0F80EFE01F1928981992780720D
S11310609070898311828981992781649868898322
S1131070892F992781831CA618A619A61DA619AA2B
S113108018AA1FA680E88EA761E06093170240911A
S11310902E0250912F028FB7F894282F3327809176
S11310A01201909113018830910511F0019711F00C
S11310B02FBF15C082E090E090931301809312013A
S11310C060938901509383014093820110929401AB
S11310D02FBF0E941107882311F40E94920780E019
S11310E09927DF91CF911F910F91FF900895AF92AF
S11310F0BF92CF92DF92EF92FF920F931F935B0107
S11311006C016091240161FF1FC020911C0130918A
S11311101D0140911E0150911F01E0902001F090AB
S113112021010091220110912301D601C501821BE6
S1131130930BA40BB50B8E159F05A007B10720F0E8
S1131140ECE1F1E090E021C0E5E2F1E060912D01F5
S113115061FFD8C0209125013091260140912701DB
S113116050912801E0902901F0902A0100912B016F
S113117010912C01A21AB30AC40AD50AAE14BF04F2
S1131180C006D10608F4BEC091E060FF04C08085AB
S11311908D7F808708C02E0D3F1D401F511F208367
S11311A0318342835383913009F0ACC08091310282
S11311B08A3009F061C08091C501882309F043C0D9
S11311C0A5E4B1E0EEE9F1E08CE101900D928150EB
S11311D0E1F749E351E08FEF80933F0180934001B1
S11311E083E9809344018091320190913301892BEA
S11311F021F5509333014093320189E28093390100
S113120080910A018823A9F010920A012CE16FEF62
S11312107FEF83E90E94D8079927282F882349F074
S113122081E080930A01109233011092320122234B
S113123021F481E08093C50106C08091C501882313
S113124011F40E9479001092310280919D0188234B
S113125089F48091A4019927982F88272091A501CA
S11312603327822B932B01968093A501892F9927ED
S11312708093A40110929D018FB7F894282F3327EF
S1131280122F80911701882349F581E0809317017B
S113129010928F012FBF8FB7F8949927379A8FBF79
S11312A08FB7F894082F1127902F8091090181306E
S11312B099F480911701813021F48CE00E94CB00D5
S11312C009C0823049F480918F018093090183E041
S11312D0809317010FBF16C09FBF14C080E00E9407
S11312E09401882319F085E090E007C080916F0194
S11312F0816080936F0180E090E01FBF892B11F023
S11313000E9479008BE00E94CB001F910F91FF9007
S1131310EF90DF90CF90BF90AF900895CF92DF927F
S1131320EF92FF920F931F93CF93DF938C01F62ECE
S11313306A01E22E8FB7F894C82FDD2760E080E0C1
S11313400E949C00882321F0CFBF80E090E01EC063
S1131350CFBF0F0D111D802F80680E94F200F82E60
S113136016950795802F807C0E94F2000E2D0AC0EE
S1131370EE2DFF27E01BF109EC0DFD1D80810E947D
S1131380F20001500023A1F78F2D9927DF91CF910F
S11313901F910F91FF90EF90DF90CF900895CF931E
S11313A0DF93CDB7DEB724970FB6F894DEBF0FBE38
S11313B0CDBF8FB7F8949927209191013091920174
S11313C02983232F33272A8320911B0230911C0267
S11313D02B83232F33272C838FBF24E0AE014F5F51
S11313E05F4F60E088E691E00E948E0924960FB674
S11313F0F894DEBF0FBECDBFDF91CF9108951F9348
S1131400CF93DF93182F8FB7F894C82FDD2760E0B0
S113141080E00E949C00882321F0CFBF80E090E010
S113142005C0CFBF812F0E94F2009927DF91CF9191
S11314301F910895EF92FF920F931F93CF93DF9321
S1131440182F7B01042F8FB7F894C82FDD2760E095
S113145080E00E949C00882321F0CFBF80E090E0D0
S113146014C0CFBF1064812F992790939601809365
S113147095010E94F200182F402F5527B70180E0F4
S113148090E00E946C01812F9927DF91CF911F91E9
S11314900F91FF90EF900895C09860911901709199
S11314A01A0141E08FE30E941A0A089582E090E055
S11314B0909376018093750181E08093700120E020
S11314C030E080910201843011F421E030E0232BDC
S11314D029F484E00E942E06882319F40E944C0A01
S11314E0089584E00E94B90608951F93CF93DF9373
S11314F08FB7F894C82FDD271C2F80917501909128
S11315007601892B29F484E00E946B06CFBF1EC0AC
S11315101092700180913302882311F0B79904C0AE
S11315200E9908C0882319F08150809333020E94D9
S1131530560A0BC081E090E0909376018093750188
S11315401092330284E00E946B061FBFDF91CF919B
S11315501F9108950E946603C09AC09888E00E9473
S1131560FF0988E00E94FF09C09A84E00E946B068C
S11315700E94750A08951F920F920FB60F921124BC
S11315802F933F934F935F936F937F938F939F9387
S1131590AF93BF93EF93FF93809175019091760180
S11315A0019719F40E94560A05C0809133028F5F97
S11315B080933302FF91EF91BF91AF919F918F91EF
S11315C07F916F915F914F913F912F910F900FBE3B
S11315D00F901F9018951F93182F81E090E090931F
S11315E0130180931201109218010E9407038FB710
S11315F0F894992710930C018FBF82E00E94CB00CE
S11316001F9108950F931F93182F042FE82FFF277E
S1131610EE0FFF1FEE5CFE4F1182108210920A0142
S1131620E0913201F0913301309721F08091190259
S113163080FF13C081E080930A0103C08FE00E9401
S1131640CB001123E1F4002319F40E94700002C0BE
S11316500E9479001092C50112C020812D503327B9
S113166067817727762F662786819927682B792BC0
S1131670AF0183850E94D807882319F3DFCF1F9118
S11316800F91089578941F920F920FB60F92112420
S11316902F923F924F925F926F927F928F929F927E
S11316A0AF92BF92CF92DF92EF92FF920F931F936C
S11316B02F933F934F935F936F937F938F939F9356
S11316C0AF93BF93EF93FF93CF93DF93CDB7DEB781
S11316D02F97F894DEBF7894CDBF2CB53DB53F87E6
S11316E02E8780E286BF0E9401049B01AC018E8597
S11316F09F857C0100271127DA01C901A070B07011
S11317008E159F05A007B10798F4212C312C7FEF8B
S1131710472E7FEF572E220E331E441E551E80E0A7
S113172090E0AFEFBFEF282239224A225B220AC0A1
S1131730212C312C6FEF462E6FEF562E22223322AE
S1131740442255222E283F28402A512A8FB7F89444
S1131750898380911201909113018530910521F0C4
S1131760069709F0DBC0BAC086E090E090931301BD
S11317708093120191E09093BA0180E00E94D90411
S11317802091820130918301F90121AABB27A52D63
S1131790942D832D8A839B83AC83BD8380ABC2014C
S11317A0AA27BB278E839F83A887B98787A7852D00
S11317B09927AA27BB278A879B87AC87BD8786A7DB
S11317C0E0918201F091830185A5882309F464C026
S11317D080813C968550E80FF11D94EF892E9FEF90
S11317E0992E8E0E9F1ED4012C9185EF682E8FEFBB
S11317F0782E6E0E7F1ED301EC90BF016A507040AC
S1131800DB018C913997A0809927AA27BB27BA2F8F
S1131810A92F982F8827332744275527522F442749
S113182033272227FF24002711278701FF24EE24D2
S11318302E293F29402B512BBB24CC24DD242A29DB
S11318403B294C295D29822B932BA42BB52B821980
S11318509309A409B5098083292F3A2F4B2F5527C3
S1131860FB0120839D0144275527F30120838B2FFF
S11318709927AA27BB27F4018083C098E0918201AD
S1131880F091830160816550772724E0A40180E012
S113189090E00E948E09C09AE0918201F091830148
S11318A0818185FF03C0F1E0F093180183E00E9479
S11318B06B0687B78F7E87BFA0918201B0918301A9
S11318C0FD0181818770813039F421AA2A8120ABFE
S11318D03E8137A78A8586A784996DC01092BA0184
S11318E081E00E94D904E0918201F0918301818119
S11318F085FF0FC087E090E090931301809312015D
S11319000E94010420E031E040E050E00E94BE0467
S113191003C080E00E94EB0A849B4DC080911401B7
S1131920882349F511E01093BA010E94D9048091EB
S1131930BB01883098F4E0919301E80FFF27E7702A
S1131940F070EE0FFF1FEE0FFF1FEA5CFD4F2082C9
S11319503182428253828F5F8093BB0110931401C2
S1131960AE85BF85B0930002A093FF01849B03C0A2
S1131970B981BFBF22C01092BA0181E00E94D9048C
S1131980109214018091FF0190910002EE85FF8571
S1131990E81BF90B3A9778F48091BB01882319F07E
S11319A081508093BB0180918201909183010097C3
S11319B011F00E947203F981FFBF2F96F894DEBFE5
S11319C0CDBFDF91CF91FF91EF91BF91AF919F91E7
S11319D08F917F916F915F914F913F912F911F91C3
S11319E00F91FF90EF90DF90CF90BF90AF909F90BA
S11319F08F907F906F905F904F903F902F900F90BB
S1131A000FBE0F901F901895CF92DF92EF92FF9226
S1131A100F931F93CFB6F894DD240E948103DC0159
S1131A20CB0166E470E00E942418EBE0EE2EF12C6A
S1131A30E80EF91EF0928E01E0928D010E940104DD
S1131A4000271127A80197010E94BE04CFBE1F9151
S1131A500F91FF90EF90DF90CF9008951F93CF9355
S1131A60DF938FB7F894C82FDD271C2F80911201C4
S1131A70909113010897C9F489E00E94FF0983E05B
S1131A800E946B06C09A81E090E0909313018093CA
S1131A9012018FB7F894992723E020930C018FBF8C
S1131AA082E00E94CB00CFBF30C0C09880918901F2
S1131AB0882311F085E001C084E00E94FF0983FDC2
S1131AC009C080E00E94FF0983FF04C085E090E024
S1131AD020E003C083E090E021E090931301809321
S1131AE01201C09A1FBF222341F01092940183E097
S1131AF00E946B060E94040D08C00E94010420E4A9
S1131B0031E040E050E00E94BE04DF91CF911F918C
S1131B100895EF92FF920F931F93CF93DF938B015E
S1131B20809195019091960186FF2AC18F7B8F3316
S1131B3009F078C1C0911901D0911A0158815093CC
S1131B40310180917501909176018330910509F4FA
S1131B5043C08430910509F48AC0029709F009C191
S1131B6083E090E090937601809375014091360173
S1131B70852F99270196242F3327281739074CF1ED
S1131B80B79906C00E9904C0451B415040933601D5
S1131B90409131014A32E8F44423A1F0BE016F5F61
S1131BA07F4F483018F047E050E007C084E090E0F1
S1131BB09093760180937501552780E090E00E9410
S1131BC06C0130C110927001C09A84E00E946B06CF
S1131BD0CDC00E94AA0A26C184E090E090937601C9
S1131BE08093750180917B01882309F439C0809129
S1131BF084018823A9F5898185FF32C08F814E81B4
S1131C002FB7F894332760911B0270911C022FBFE9
S1131C109927982F88275527842B952B8617970764
S1131C2059F08F812E819927982F88273327822B6B
S1131C30932B8F5F9F4FA1F489818770813081F44A
S1131C40C09AC0988AE00E94FF09C09AC098409147
S1131C50310147502896BE018FE30E941A0AE2C060
S1131C6040913101475055272896BE01A6CFC09A0E
S1131C7080913302882319F484E00E946B068091DA
S1131C80BB018823A1F1809131018B30B0F1E09147
S1131C909301FF27EE0FFF1FEE0FFF1FEA5CFD4FBE
S1131CA02081318142815381E0911901F0911A011F
S1131CB021ABBB27A52F942F832F80ABCA01AA2762
S1131CC0BB2787A7252F33274427552726A780918D
S1131CD093019927019668E070E00E943818809378
S1131CE093018091BB0181508093BB0106C0809118
S1131CF0190190911A010E94720380913101FE0131
S1131D00E80FF11D808187FF31C0012B79F16981D2
S1131D106770E0911901F0911A01623019F5A091F0
S1131D208201B0918301109709F180911201909181
S1131D3013010797D9F4ED019B8183819817B1F4BE
S1131D4087B78F7E87BF908181E08CA7E90FF11D53
S1131D508291319688A780818F7789A780E00E943D
S1131D60EB0A04C0613011F489E02AC00E94750AAC
S1131D7059C010927001C09A84E00E946B0652C050
S1131D808E3309F04FC0C09A8091120190911301D3
S1131D900897C9F4C09889E00E94FF09C09A83E0BB
S1131DA00E946B0681E090E09093130180931201EE
S1131DB08FB7F894992723E020930C018FBF82E01A
S1131DC00E94CB002FC080918901882349F484E0CC
S1131DD090E090931301809312010E942E0D22C073
S1131DE083E00E946B0683E090E09093130180935C
S1131DF012010E948103DC01CB0166E371E00E94C1
S1131E002418FBE0EF2EF12CE80EF91EF09281016C
S1131E10E09280010E94010400271127A801970184
S1131E200E94BE04DF91CF911F910F91FF90EF901C
S1131E3008951F920F920FB60F9211242F933F9380
S1131E404F935F936F937F938F939F93AF93BF93BE
S1131E50EF93FF932FB1E0913401F0913501309766
S1131E6039F08091710190917201E80FF91F20837C
S1131E708091710190917201019690937201809307
S1131E80710180E00E94B3004091C2015091C301EE
S1131E9080917101909172018417950718F40E9442
S1131EA0FE001CC0609134017091350180918B015A
S1131EB090918C01109235011092340110928C0192
S1131EC010928B011092C3011092C2011092720100
S1131ED0109271012FB120E00E94890DFF91EF91C2
S1131EE0BF91AF919F918F917F916F915F914F912E
S1131EF03F912F910F900FBE0F901F901895AF92A6
S1131F00BF92CF92DF92EF92FF920F931F93CF93E2
S1131F10DF93873009F4FEC1883098F4833009F4E4
S1131F20E6C0843038F4813009F488C0823008F087
S1131F308BC027C0853009F4FCC0863008F032C15C
S1131F40F1C08B3009F47BC38C3038F4893009F448
S1131F5019C28A3008F040C301C28D3009F407C4A5
S1131F608D3008F4ECC38E3021F08F3009F09CC41E
S1131F7080C480911902882309F496C420E011E0FA
S1131F8059C40FB7F894112781E00E94D90481E065
S1131F90E82EF12CF0921301E09212011092140138
S1131FA010921801109218020FBF0FB7F89411275E
S1131FB00E946603F0927601E0927501109270011E
S1131FC089B78F7B89BF80E488BF8AB780628ABF64
S1131FD08AB78F7E8ABF89B7806489BF0FBF8FB7E6
S1131FE0F894C82FDD2780910D0190910E0104977C
S1131FF019F483E00E94FF09CFBF0FB7F8941127AB
S1132000C09A80E00E946B060FBF8FB7F89499279F
S113201022E0209386018FBF4091A0015527542FC1
S113202044278091A1019927482B592B66277727AC
S113203081E00E94E2021092310236C48FB7F89414
S113204099271092860173C08FB7F8949927F0905E
S11320500C018FBF63E081E00E949C00882359F14A
S11320600FB7F8941127109213011092120187B739
S11320708F7E87BF87B78F7D87BF83E00E946B0603
S1132080C09A0FBF0FB7F8941127109276011092DF
S113209075010E946603C09A89B78F7B89BF0FBF01
S11320A010920E0110920D01DE98DD98DE9A81E007
S11320B00E94CB0007C08FB7F894992722E02093A1
S11320C086018FBFC0912E02D0912F020E948D01F4
S11320D080910A01882309F0E7C36091320170916D
S11320E033016C177D0709F0DFC34F2DCDC38FB7C4
S11320F0F894282F3327122F80917301882309F530
S113210081E08093730180910D0190910E010497F9
S113211021F481E00E94B90603C084E00E94CB0050
S11321201FBFC2C38FB7F8949927109273018FBF52
S1132130BBC38FB7F894282F332780910F018823CE
S113214011F02FBFB1C32FBF80B3992716E0969526
S113215087951A95E1F7182F117090912F018091AE
S113216090018917D9F01917C9F484E090E090938D
S11321700E0180930D018FB7F894992721E02093E5
S11321800F018FBF60E070E08DE10E9420070E9484
S1132190CF09C09AC09880E00E94CB0010939001B0
S11321A085E068C08FB7F8949927109102018FBF1A
S11321B0123009F462C0133030F4112359F0113095
S11321C009F072C343C0133009F471C0143009F02C
S11321D06BC39DC0C0988FB7F894C82FDD2780913A
S11321E00D0190910E01029779F583E090E09093B0
S11321F00E0180930D0168E170E08DE10E942007DB
S113220081E080932F0110920F0180B39927B6E0EB
S113221096958795BA95E1F78170907080939001B7
S113222085E00E94CB0081E00E94FF096FE772E025
S11322308CE10E9420070E9481070E94470766E5FF
S11322407AE287E10E942007CFBF2EC3C09886E0C0
S11322500E94FF090E9481070E9447070E94CF093C
S1132260C09AC09883E00E94FF09C09A81E00E944E
S11322706B0684E00E94CB0017C3C0988FB7F89414
S1132280C82FDD2760E080E00E949C00882311F0C5
S1132290CFBF0AC0CFBF83E50E94F20080E00E9456
S11322A0F20080E00E94F200C09A82E02DC08FB755
S11322B0F8949927209112018FBF243039F02830E7
S11322C041F0223001F50E949207EEC20E942E0DC9
S11322D0EBC2C09889E00E94FF09C09A83E00E9483
S11322E06B068FB7F894992721E030E030931301FF
S11322F0209312018FBF8FB7F894992710930C0184
S11323008FBF82E0B7CF83E00E946B06CDC20E94EC
S11323104C0ACAC20FB7F89411274091C2015091D8
S1132320C301609134017091350180918B019091CA
S11323308C01109235011092340110928C0110928C
S11323408B011092C3011092C2011092720110927B
S1132350710120E00E94890D0FBFA6C22FB7F89427
S113236033278091BD018093050182E080931101A0
S11323702FBF80910501882309F096C2B89AC098AE
S113238086E078CFA0911901B0911A011C91FD014A
S1132390E10FF11D8081881F8827881FED018BA71D
S11323A080818F7789A73197808188A7E09119016F
S11323B0F0911A018FB7F8949927209174018FBF77
S11323C02223F9F0878146812FB7F894332760914F
S11323D01B0270911C022FBF9927982F882755271D
S11323E0842B952B8617970761F08781268199277F
S11323F0982F88273327822B932B8F5F9F4F09F0C9
S1132400E2C01D3008F4DFC0C0911901D0911A0157
S11324108A858F3309F0D3C0898528859927582F59
S113242044273327422B532B6B818FEF8093320247
S11324308FB7F894782F20E030E0E1E0F2E080817B
S113244091818417950729F48281861731F12093AD
S113245032022F5F3F4F33962430310581F77FBF1F
S1132460909132023FB7F8949F3F21F0809115017B
S11324708917A9F420911501822F9927FC01EE0FE9
S1132480FF1FE80FF91FEF5FFD4F51834083628305
S11324902F5F2370209315010EC07FBF90C0892F3A
S11324A09927FC01EE0FFF1FE80FF91FEF5FFD4FA7
S11324B0518340836283832F99278FBF8BA5882301
S11324C009F47DC08F814E812FB7F8943327609132
S11324D00601709107012FBF9927982F8827552748
S11324E0842B952B8617970761F08F812E8199276E
S11324F0982F88273327822B932B8F5F9F4F09F0C8
S11325005EC08B85833909F05AC02FB7F8943327FE
S11325108BB311E081278BBB2FBF8C852D85992729
S1132520582F44273327422B532B80919E01992700
S1132530982F882720919F013327822B932B841770
S1132540950700F540939F01852F992780939E015D
S11325508E852F859927982F88273327822B932BB5
S11325608093A101492F55274093A001542F44275C
S11325709927482B592B6627772781E00E94E2028E
S1132580109231028A892B899927582F442733279F
S1132590422B532B8091A4019927982F88272091AF
S11325A0A5013327822B932B8417950740F440937E
S11325B0A501852F99278093A40110939D01D093A1
S11325C01A01C09319018FB7F894992710927001DA
S11325D08FBF0E94750A68C180912E01882361F51E
S11325E020910D0230910E0240910F025091100281
S11325F0EFB7F894FF276091990170919A01809147
S11326009B0190919C01E090FB01F090FC010091F2
S1132610FD011091FE016E0D7F1D801F911FEFBF04
S113262020930D0230930E0240930F025093100238
S113263010922E010E94C8020E941E026DC00E94C8
S11326401E025B016C018FB7F89499271092C601A2
S11326508FBF8091240181FF25C080911C0190913E
S11326601D01A0911E01B0911F01A6019501281B17
S1132670390B4A0B5B0BE0902001F0902101009193
S1132680220110912301E21AF30A040B150B3FEF08
S1132690E3163FEFF3063FEF03073FE7130711F09D
S11326A061E009C01FEFE12E1FEFF12E1FEF012F94
S11326B01FE7112F60E080912D0181FF21C08091DF
S11326C0250190912601A0912701B0912801A6012E
S11326D09501281B390B4A0B5B0BDA01C9012091C8
S11326E0290130912A0140912B0150912C01281B82
S11326F0390B4A0B5B0B2E153F05400751072CF095
S1132700662309F4D1C0A801970112161306140612
S113271015062CF0C601B5010E947708C5C02093A8
S11327200D0230930E0240930F025093100281E089
S113273080932E01C601B5010E94C802B5C02FB70F
S1132740F894332780918F018093090183E080936B
S113275017012FBF80910901882309F0A5C081E0EA
S11327608093BC011092C4010E94A8019DC01092E4
S1132770BC01C0903701D09038018091C4018823F6
S113278009F092C08FB7F894E82E80911701833036
S113279009F03EC0809109018823D1F580916F0131
S11327A0882309F07BC073C0EF2DE695E695E69586
S11327B0FF274F2D5527E159FE4F9A01277030709E
S11327C081E090E002C0880F991F2A95E2F7809576
S11327D02081282320830093160112C00F5F1F4F0E
S11327E00130110511F400E010E0F02E802F0E945A
S11327F094018823C9F60C171D0781F74FEF50E0A9
S113280040938F0181E0809317018CE00E94CB00FC
S1132810EFBEE0913102EF5FE0933102E150FF2718
S1132820EE0FFF1FEA55FE4FC1828D2D992780833D
S11328303BC0110F90911902812F8923B1F0E22F2F
S1132840FF27EE0FFF1FEE5CFE4F11821082812FD7
S11328508095982390931902222339F40E947900D9
S11328601092C501110F21E0E5CF2F5F283008F346
S11328701BC080910A01E82FFF27EE0FFF1FEE5CBB
S1132880FE4F6081718141E00E94020B0DC081E026
S113289080930901109217013798BACF80911601DD
S11328A0C82FDD278E019ACFDF91CF911F910F9111
S11328B0FF90EF90DF90CF90BF90AF9008958091FC
S11328C01A028F3FB1F0282F3327F901E35EFD4F41
S11328D0808180931A028F3F11F4809330028FEF2E
S11328E080832F3F31F0822F0E947F0F81E090E0A0
S11328F0089580E090E00895CFEFD0E1DEBFCDBF32
S11329001FB7F89440E150E06FEF70E08DE192E082
S11329100E9411188FEF80931A028093300281E095
S11329208EBD88E080BF83E083BF8CB59DB54AE748
S11329302CB53DB52817390708F44150442311F04C
S1132940C901F6CF92B782B78917E9F32CB53DB523
S113295092B782B78917E9F38CB59DB5821B930BA7
S1132960409635E0969587953A95E1F790939801CE
S11329708093970113BE83B78EBD8EB580BF12BE00
S11329801DBC1CBC8FEF86BF86B780937C0080B7CC
S1132990992787709070892BD1F7D29AD19AD09ABF
S11329A0DA9AD99AD89A15BA8FEF84BBD498DC985E
S11329B016B81DBC1CBC87B7846087BF8EB5887FE2
S11329C084608EBD80E285BF0E945F148823E1F796
S11329D010926F01E1E0F2E08FEF9FEF918380832B
S11329E01282339622E0ED30F207C1F70E94810390
S11329F060931B0180910001909101010196AA2727
S1132A00BB278093770190937801A0937901B093C9
S1132A107A0180B7886080BF8BE083BF86EE81BF78
S1132A2087B7826087BF0E94450287EC91E090934C
S1132A301A01809319018E98B89A8C988FEF80931D
S1132A40350210928501109286011092870110922E
S1132A508801B89AD69AD59A8FB7F8949927209175
S1132A600601309107018FBF30931C0220931B0293
S1132A7080910801992790939201809391018FE1AD
S1132A8080938A018AE18093110281E0809374012A
S1132A901092160280937B01109284010E945F14AD
S1132AA08823E1F7812F99278FBF78941092A10191
S1132AB081E08093A00180910001909101018093B5
S1132AC0A301892F99278093A20161E081E00E94EC
S1132AD082008823E9F48FB7F894282F3327809154
S1132AE00D0190910E01892B11F02FBF1FC081E0C1
S1132AF090E090930E0180930D012FBFDD9A0E9408
S1132B00010424E130E040E050E00E94BE040EC025
S1132B1062E081E00E949C00882309F070C061E0BB
S1132B2081E00E949C00882309F469C08FB7F8945F
S1132B30482F552749C087B7992783709070892BF0
S1132B4019F4E5E0F0E013C080B79927877090701E
S1132B50892BD1F781B792B7891B8C3030F082B7BB
S1132B60853F18F4E3E0F0E002C0E2E0F0E087B76C
S1132B70887BC1F480917D008B7FA1F46E9912C093
S1132B808AB190919A00892B807C61F480917400C1
S1132B9082FD08C0379B03C081E090E005C085E05A
S1132BA090E002C080E090E025B78E1708F4E82F8B
S1132BB0FF27E457FF4FC895E02D237E2062E22BC8
S1132BC0E5BF78948895F89480911A028F3F09F4B0
S1132BD0B2CF282F3327F901E35EFD4F8081809324
S1132BE01A028F3F11F4809330028FEF80832F3FBE
S1132BF009F4A1CF4FBF822F0E947F0F97CF0E946D
S1132C00790094CF78941F920F920FB60F921124EB
S1132C101F932F933F934F935F936F937F938F9360
S1132C209F93AF93BF93EF93FF9387B78F7E87BF35
S1132C3078941FB7F8948091120290911302A09196
S1132C401402B09115020097A105B10509F051C015
S1132C5080911201909113018530910561F18630C4
S1132C60910530F48330910549F0049781F51AC039
S1132C7087309105F1F0089751F514C0869B0FC079
S1132C8084E090E090931301809312010E94010468
S1132C9027E030E040E050E00E94BE0418C00E94EB
S1132CA0040D15C00E941107882389F40E942E0D7B
S1132CB00EC080E00AC089E00E94FF0981E00E9402
S1132CC0D90483E00E946B0687E00E94EB0A80919E
S1132CD00D0190910E01019771F482E090E09093C0
S1132CE00E0180930D01DE98DE9A80E00E94B90601
S1132CF002C00E941E04812F99278FBFFF91EF917C
S1132D00BF91AF919F918F917F916F915F914F91FF
S1132D103F912F911F910F900FBE0F901F90189508
S1132D20ACE2B0E0E6E9F6E10C946A18222E332E08
S1132D30442E552E662E772E882E992EFE0131961E
S1132D40A8E01192AA95E9F729823A824B825C8223
S1132D506D827E828F829886FE013996B8E0119248
S1132D60BA95E9F7A986BA86CB86DC86ED86FE8617
S1132D700F87188B89819A81AB81BC8189A79AA717
S1132D80ABA7BCA77C018D018FEF9FEFA0E0B0E063
S1132D90E822F9220A231B2389A59AA5ABA5BCA581
S1132DA01D014424552489859A85AB85BC858DA352
S1132DB09EA3AFA3B8A75C016D018FEF9FEFA0E0C6
S1132DC0B0E0A822B922CA22DB228DA19EA1AFA124
S1132DD0B8A53D0188249924C801B701A60195012D
S1132DE00E944B1869A37AA38BA39CA3C801B701C3
S1132DF0A40193010E944B187B018C01C201B10113
S1132E00A60195010E944B185B016C01C201B1013E
S1132E10A40193010E944B183B014C01EA0CFB1CDA
S1132E200C1D1D1D89A19AA1ABA1BCA19D01442724
S1132E3055272E0D3F1D401F511F2A153B054C05DC
S1132E405D0540F480E090E0A1E0B0E0680E791EFA
S1132E508A1E9B1ECA01AA27BB27860D971DA81D83
S1132E60B91D8D8F9E8FAF8FB8A3A9013327222759
S1132E7089A19AA1ABA1BCA1A070B070280F391F81
S1132E804A1F5B1F298F3A8F4B8F5C8FA98CBA8C9A
S1132E90CB8CDC8CED8CFE8C0F8D18A1FE01719611
S1132EA098E011929A95E9F7ED8AFE8A0F8B188FB4
S1132EB02D813E814F8158856DA17EA18FA198A55A
S1132EC00E944B183B014C012D853E854F85588946
S1132ED069A57AA58BA59CA50E944B182D893E89CE
S1132EE04F89588D260F371F481F591F260D371D30
S1132EF0481D591D2D8B3E8B4F8B588F6D887E88B6
S1132F008F88988C2A2D3B2D4C2D5D2D662D772D89
S1132F10882D992DE2E1AC960C948618A0E1B0E0DE
S1132F20E4E9F7E10C946A18222E332E442E552E30
S1132F30662E772E882E992E002309F466C088E029
S1132F40FE01319611928A95E9F729833A834B83DE
S1132F505C836D837E838F829887E0E2E01B1E167C
S1132F60CCF52D813E814F815885602F772767FDF1
S1132F707095DA01C901062E04C0B695A7959795F8
S1132F8087950A94D2F78D879E87AF87B88B04C044
S1132F90220F331F441F551FEA95D2F789819A8166
S1132FA0AB81BC8104C0B695A795979587956A9522
S1132FB0D2F7282B392B4A2B5B2B29873A874B874F
S1132FC05C8729843A844B845C846D847E848F84FA
S1132FD098881BC01D861E861F86188A2E2F3327AD
S1132FE027FD3095309521953F4F8D819E81AF818E
S1132FF0B88504C0B695A795979587952A95D2F775
S113300089879A87AB87BC87DCCF222D332D442D4B
S1133010552D662D772D882D992DE2E160960C941F
S11330208618DC0101C06D9341505040E0F70895CB
S1133030991B79E004C0991F961708F0961B881F06
S11330407A95C9F780950895AA1BBB1B51E107C067
S1133050AA1FBB1FA617B70710F0A61BB70B881F24
S1133060991F5A95A9F780959095BC01CD010895B3
S113307097FB092E07260AD077FD04D0E5DF06D09A
S113308000201AF4709561957F4F0895F6F7909596
S113309081959F4F0895629FD001739FF001829F95
S11330A0E00DF11D649FE00DF11D929FF00D839FD3
S11330B0F00D749FF00D659FF00D9927729FB00D70
S11330C0E11DF91F639FB00DE11DF91FBD01CF0183
S11330D0112408952F923F924F925F926F927F92A4
S11330E08F929F92AF92BF92CF92DF92EF92FF9214
S11330F00F931F93CF93DF93CDB7DEB7CA1BDB0BC0
S11331000FB6F894DEBF0FBECDBF09942A88398864
S113311048885F846E847D848C849B84AA84B9846B
S1133120C884DF80EE80FD800C811B81AA81B98177
S1133130CE0FD11D0FB6F894DEBF0FBECDBFED018B
S10731400895FFCF1C
S10F31440100FFFFFFFF01002201010059
S9030000FC
